:1000000017C031C030C008C257C12DC02CC02BC092
:100010002AC029C028C0AFC126C025C024C023C023
:1000200022C0C8C82301244F260721012201310420
:1000300011241FBECFE5D1E0DEBFCDBF10E0A0E6AA
:10004000B0E0E0EFFAE002C005900D92A236B107F1
:10005000D9F720E0A2E6B0E001C01D92AD37B207AB
:10006000E1F79ED243C5CCCFE199FECF90E09FBB94
:100070008EBBE09A8DB30895E199FECFF8941CBA37
:1000800090E09FBB8EBB6DBBE29AE19A7894089595
:10009000882331F09AE19A95F1F700C08150F8CFAA
:1000A0000895009759F02FEF30E742E0215030409B
:1000B0004040E1F700C000000197F3CF0895FF92A0
:1000C0000F931F93CF93DF93F82E062F10E0C42FCA
:1000D000D0E0D998FF2039F0C801E3DFD99ACE01EA
:1000E000E0DFFA94F6CFDF91CF911F910F91FF904F
:1000F00008958FB980E48EB98BE18DB9769BFDCFE1
:100100008FB10895EF92FF921F93CF93DF9300D0AA
:10011000CDB7DEB7142FDB9869837A83EADF698174
:10012000E62E7A81F72E160F1E1531F08FEFE1DFE4
:10013000F70181937F01F8CFDB9A0F900F90DF9149
:10014000CF911F91FF90EF900895CF93DF931F926F
:10015000CDB7DEB7DB986983CCDF6981862FC9DF35
:10016000DB9A0F90DF91CF910895EF92FF921F934A
:10017000CF93DF9300D0CDB7DEB7142FDB98698320
:100180007A83B7DF6981E62E7A81F72E160F1E1566
:1001900029F0F70181917F01ACDFF9CFDB9A0F9055
:1001A0000F90DF91CF911F91FF90EF900895DB9812
:1001B000A0DFDB9A0895CF93C82F682F6E6080E28E
:1001C000C4DFC0FF04C060E787E2BFDFDA9ACF91E7
:1001D00008951F93CF93DF93EC018FEFE8DF182F83
:1001E00086FF0CC044E0BE0181E68CDF60E787E259
:1001F000ACDF812F869587708F5F01C080E0DF9133
:10020000CF911F910895CF93DF93EC0181EECFDF63
:1002100060E787E29ADF44E0BE0180EAA6DFDA9A6F
:10022000CFEF8AE035DF8FEFC2DF982F907321F494
:10023000C150B9F782E005C085FB882780F991E0BD
:100240008927DF91CF910895CF93C82F80937800AD
:1002500042E050E062E270E089E790E03ED443E0A3
:1002600068E770E08AE281DF43E068E770E080E3FE
:100270007CDF43E068E770E080E144DF81E090915B
:1002800078009C1380E0CF9108951F93CF93DF9364
:10029000182FDB9AC4E2D0E0FE018491319664917C
:1002A00054DF2296F0E0C033DF07B1F7612F85E21B
:1002B000DF91CF911F9149CF1F920F920FB60F92EE
:1002C00011248F939F9388E181BD8BE481BD809140
:1002D0006700882329F08091670081508093670030
:1002E000809166008F5F80936600803F49F4109292
:1002F0006600809160008F3F19F08F5F80936000EF
:1003000080916D0090916E00009749F00197909355
:100310006E0080936D00892B11F410926F00809114
:100320006300882339F0D99A8091630081508093CB
:1003300063001AC080916200882329F0D9988091C7
:10034000620081500FC080916400882369F092E0C0
:1003500090936200909363008150809364008111B8
:1003600003C08FE0809362009F918F910F900FBE2A
:100370000F901F9018951F920F920FB60F92112495
:100380002F933F934F935F938F939F9380916C0034
:100390008F5F80936C00811134C080916B0083303B
:1003A00081F140916900B29908C04F3F19F04F5F49
:1003B0004093690010926B0024C08230E1F4809178
:1003C0006A008823C1F083E080936B002091740061
:1003D00030917500C90154E0880F991F5A95E1F7D3
:1003E00050917700850F911D820F931F9093750098
:1003F0008093740002C010926B004A3010F4109287
:1004000069009F918F915F914F913F912F910F9034
:100410000FBE0F901F9018951F920F920FB60F925C
:1004200011242F933F934F935F938F939F938091CA
:100430006B00811110C081E080936B0010927C00F2
:10044000109272001092770085E095E1909375000C
:100450008093740054C0833008F053C040916C0006
:100460008130A1F4842F86958695869590916A00B7
:10047000891731F090916800992331F080936A00D8
:1004800082E080936B0002C010926B0080917C0030
:10049000841730F4242F281B982F969581E005C0EF
:1004A000282F241B81E0942F9695921708F080E066
:1004B00050917700550F582B509377008091720020
:1004C0008F5F883018F48093720017C0109272000A
:1004D0002091740030917500C90182959295907FAA
:1004E0009827807F9827820F931F850F911D9093E7
:1004F0007500809374001092770040937C001092F6
:100500006C009F918F915F914F913F912F910F9030
:100510000FBE0F901F901895CF93DF93C82F809137
:100520007600811123C08BE09FDD813029F4CC233C
:1005300011F0C09A01C0C09884E096DDD82F809158
:100540007100C81303C082E38CBF1BC08EE08CDD3A
:100550008D1B6C2F70E090E07CD26091710070E098
:100560006150710993D2D60FDCBF0BC0809171002E
:100570008C1708F4C82F98B38C2F83709C7F892B1D
:1005800088BB85E0809362008091730080FF02C089
:10059000CF5F01C0C1E0C0936400DF91CF910895A7
:1005A00080E886BD16BC80E285BF82E08ABB81E020
:1005B0008BBB8AB38C638ABB83E080BF8AE083BF36
:1005C00089B7816089BF82E386BF1CBE82E04CDDB3
:1005D000809376008F3F31F461B780E04DDD60E0BD
:1005E00082E04ADD80E040DD81BF86E03DDD809332
:1005F00071008091760081110FC0D79A8BE034DDB5
:10060000813019F4B89AC19A03C088B3836088BB5B
:1006100080B7806280BF03C0DF9A83E087BB8BB75F
:1006200080628BBF80B5846080BD83E01DDD882340
:1006300029F080E119DD80936A0001C0C29A88E048
:1006400013DD809373008AE00FDD1FDE88E181BD3A
:100650008BE481BD789487E007DD5EDF95E0D92EDD
:10066000EE24EA94C0EEDBEA81E0FEDCEDDD8111F0
:1006700005C044E162E381E022DDF6CF81E09BDD4D
:1006800001E0889580916B00833009F056C081E1CC
:10069000F82E10E08F2DE8DC90917400891345C08E
:1006A00081E08F0DE1DC9091750089133EC012301E
:1006B00029F58091670081111AC080916F00811126
:1006C00005C0D092670000936F0002C010926F00C7
:1006D00080916F00882319F08091710002C0809191
:1006E00070001ADFD0936E00C0936D0024C0F894A0
:1006F00010926E0010926D0078941DC080916F0072
:100700008823C9F080917000111106C0909171008A
:10071000891738F48F5F03C0882319F081508093C4
:10072000700080917000F8DE06C01F5FF394F394B0
:10073000133009F0AFCF10926B00809169008F3FAA
:10074000D9F441E062E082E0BADC1092690081E015
:1007500090E0A7DC809169008F3F09F4B1C0B29BA3
:10076000F6CF8CE081DC182F1027612F8CE084DC21
:100770004AE06AE0812F9CC08A30C0F0B29B16C06C
:1007800000936F00809170008F5F80937000909154
:100790007100981710F4109270006091700087E05B
:1007A0006BDC1092690080917000B6DE88E790E003
:1007B00010DD882309F45DC080916F00811133C082
:1007C00010917A0085E050DC682F812F53D18093FF
:1007D00070008CE049DC8823D9F010917B00117007
:1007E00080916500181741F0F09060008DE03CDCCE
:1007F000F81610F4109165001093650010926000D7
:10080000112331F01092700041E061E081E057DC8B
:1008100089E02ADC90917000981710F480937000A2
:100820008091700079DE80E21FDCF82E882309F1C8
:1008300082E32EDC80E0BFDC10E081E2810F14DC7B
:1008400003DD1F5F882391F088E790E0DCDC8823DC
:1008500069F09091730092FF09C0109264004AE021
:1008600065E02DDC42E062E0812F29DC1F11E5CF3D
:10087000FBCE80916300811104CF809162008111D1
:1008800000CF809164008111FCCE8091730081FFC4
:10089000F8CE80916F00882331F080916D0083FD48
:1008A00002C0D99AEECED998ECCE41E061E088E062
:1008B00006DC10926B00109269001092680076CFEF
:1008C00010926F0080917600811110C041E062E0CB
:1008D00083E0F5DB1092690081E090E0E2DB80913B
:1008E00069008F3F09F443C0B29BF6CF80916A0044
:1008F0008823F9F20093680041E061E087E0DFDBE4
:100900008AE090E0CEDB10926B00E092670080916D
:100910006700882371F2889580916400811104C07A
:10092000809168008093640080916B00833079F738
:1009300080916800813021F460916A0080E19CDB45
:1009400080916800880F60917400815F95DB6091F1
:10095000750080916800880F805F8EDB8091680051
:10096000833008F0A2CF8F5F80936800C5CF41E04D
:1009700062E084E0A4DB1092690081E090E091DB0A
:10098000B29BFBCF809169008F3F41F441E062E070
:1009900085E095DBFF24F3948EE002C0F12C84E027
:1009A00063DB8CBF10926900E09267008091670062
:1009B000882309F442C08895B29BF8CF80916900E2
:1009C0008230A0F38F3F09F541E062E086E077DBFB
:1009D0001092690081E090E064DBB29BFBCF8091D4
:1009E00069008F3FF9F680E23FDB11E0180F13300A
:1009F00008F010E0612F80E23FDB4AE06AE0812FDF
:100A00005EDB8AE090E04DDBCDCF803550F48CB7D3
:100A1000823340F68CB78F5F8CBF41E061E081E0AC
:100A20000AC08CB7882309F4BDCF8CB781508CBF26
:100A300041E061E082E043DBB5CF41E061E087E087
:100A40003EDB6CB7FF2011F08EE001C084E014DBC8
:100A500030CF0024552704C0080E591F880F991F56
:100A6000009729F076956795B8F37105B9F7802D51
:100A7000952F0895991B79E004C0991F961708F0E7
:100A8000961B881F7A95C9F78095089597FB072EC6
:100A900016F4009406D077FD08D00BD007FC05D0E3
:100AA0003EF4909581959F4F0895709561957F4F85
:100AB0000895AA1BBB1B51E107C0AA1FBB1FA617A5
:100AC000B70710F0A61BB70B881F991F5A95A9F7F7
:100AD00080959095BC01CD010895FB01DC0102C019
:100AE00005900D9241505040D8F70895F894FFCFEB
:020AF000FF0005
:00000001FF
