S0190000576972656C657373434F3253656E736F722E737265637F
S113000017C031C0CEC162C242C12DC02CC02BC0AA
S1130010F2C129C028C009C226C0AAC124C023C075
S113002022C0C8C8230124772607210122013104F4
S113003011241FBECFE5D1E0DEBFCDBF10E0A0E6A6
S1130040B0E0EEEFFDE002C005900D92A236B107DC
S1130050D9F720E0A2E6B0E001C01D92AF39B207A3
S1130060E1F7D4D2CAC6CCCF882331F09BE19A956C
S1130070F1F700008150F8CF0895009759F02FEF61
S11300803FE742E0215030404040E1F700C000002B
S11300900197F3CF0895FF920F931F93CF93DF93AC
S11300A0F82E062F10E0C42FD0E0D998FF2039F0A5
S11300B0C801E3DFD99ACE01E0DFFA94F6CFDF91ED
S11300C0CF911F910F91FF900895E199FECF90E099
S11300D09FBB8EBBE09A8DB30895E199FECFF8944F
S11300E01CBA90E09FBB8EBB6DBBE29AE19A7894F8
S11300F008958FB980E48EB98BE18DB9769BFDCFDD
S11301008FB10895EF92FF921F93CF93DF9300D0A6
S1130110CDB7DEB7142FDB9869837A83EADF698170
S1130120E62E7A81F72E160F1E1531F08FEFE1DFE0
S1130130F70181937F01F8CFDB9A0F900F90DF9145
S1130140CF911F91FF90EF900895CF93DF931F926B
S1130150CDB7DEB7DB986983CCDF6981862FC9DF31
S1130160DB9A0F90DF91CF910895EF92FF921F9346
S1130170CF93DF9300D0CDB7DEB7142FDB9869831C
S11301807A83B7DF6981E62E7A81F72E160F1E1562
S113019029F0F70181917F01ACDFF9CFDB9A0F9051
S11301A00F90DF91CF911F91FF90EF900895DB980E
S11301B0A0DFDB9A0895CF93C82F682F6E6780E283
S11301C0C4DFC0FF04C060E787E2BFDFDA9ACF91E3
S11301D00895CF93DF93EC01DA9860E787E2B5DF07
S11301E081EEE5DF44E0BE0180EABFDFDA9ACFEFBB
S11301F084E13ADF8FEFDBDF982F907321F4C15055
S1130200B9F782E005C085FB882780F991E089274A
S1130210DF91CF910895CF93C82F8093880042E057
S113022050E062E270E089E890E0DED543E068E8FF
S113023070E08AE29ADF43E068E870E080E395DFEB
S113024043E068E870E080E15DDF81E09091880040
S11302509C1380E0CF910895DA986CE780E275CF23
S11302601F93CF93DF93182FDB9AC4E2D0E0FE01F3
S113027084913196649169DF2296F0E0C033DF0700
S1130280B1F7612F85E2DF91CF911F915ECF1F926D
S11302900F920FB60F9211248F939F9388E181BD23
S11302A08BE481BD80916100882329F080916100F5
S11302B081508093610080916F00882319F08150F0
S11302C080936F0080916700882339F0D99A8091D8
S11302D0670081508093670044C080916600882342
S11302E029F0D9988091660081500FC080916500F3
S11302F0882371F08150809365009AE090936700A1
S1130300811102C086E00EC083E08093660029C09C
S113031080916400882371F081508093640082E0AE
S1130320809367008093660080916400811119C0F6
S113033084E1EBCF80917400882399F0809174005C
S113034082958F7080936500809174008F70809384
S1130350640080916300882321F01092630010925E
S113036074009F918F910F900FBE0F901F9018955E
S11303701F920F920FB60F9211242F938F939F9376
S113038025B181E090917500291708F480E08093ED
S113039073009F918F912F910F900FBE0F901F901C
S11303A018951F920F920FB60F9211242F933F931B
S11303B08F939F93C89B03C01DBC1CBC13C02CB55A
S11303C03DB5809171009091720004973695279500
S11303D036952795820F931F969587959093720073
S11303E0809371009F918F913F912F910F900FBE39
S11303F00F901F9018951F920F920FB60F92112411
S11304008F938091740081110AC080916A008111D8
S113041006C080E48093740081E0809363008F9130
S11304200F900FBE0F901F9018951F920F920FB64A
S11304300F9211242F933F934F935F938F939F9326
S113044080916E008F5F80936E00811134C0809123
S11304506D00833081F140916C00B29908C04F3F28
S113046019F04F5F40936C0010926D0024C08230ED
S1130470E1F4809176008823C1F083E080936D00DD
S11304802091780030917900C90154E0880F991FB8
S11304905A95E1F750918500850F911D820F931FA6
S11304A0909379008093780002C010926D004A30D6
S11304B010F410926C009F918F915F914F913F9136
S11304C02F910F900FBE0F901F9018951F920F92AF
S11304D00FB60F9211242F933F934F935F938F93F3
S11304E09F9380916D00811110C081E080936D0015
S11304F010928C00109277001092850085E095E1AF
S1130500909379008093780054C0833008F053C0EE
S113051040916E008130A1F4842F8695869586954E
S113052090917600891731F090916B00992331F006
S11305308093760082E080936D0002C010926D007B
S113054080918C00841730F4242F281B982F9695C3
S113055081E005C0282F241B81E0942F96959217E3
S113056008F080E050918500550F582B509385007A
S1130570809177008F5F883018F48093770017C0DC
S1130580109277002091780030917900C90182950A
S11305909295907F9827807F9827820F931F850FCD
S11305A0911D909379008093780010928500409378
S11305B08C0010926E009F918F915F914F913F91AB
S11305C02F910F900FBE0F901F901895909174006B
S11305D0911109C090916A00911105C091E0909326
S11305E063008093740008951092670094E09093E0
S11305F0660091E09093630087FD03C080937400CC
S1130600089590E1981B90937400089520E826BD06
S113061016BC80E285BF92E09ABB8AB38C638ABB26
S11306202BBB83E088BB80BF8AE083BF81E386BFA6
S11306301CBE9FBD8DE18EBD80E89EE395BD84BD4B
S113064085E043DD882311F081E08CB987E087B928
S11306509FE896B990E193B990E39BBF91E092BB78
S113066080BD81E032DD809375008F3F49F461B72E
S113067080E033DD61E082E030DD60E981E02DDDA2
S113068080E023DD81BF8BB780628BBF80B584603F
S113069080BD89B7816089BF80E317DD80937600D0
S11306A087E013DDDDDD43E063E083E0F4DC88E133
S11306B081BD8BE481BD7894EDE8F0E08FEF819308
S11306C090E0E739F907D9F780E075DD82E0FDDCD9
S11306D0813039F0EE24E39401E01FEFF5E0FF2EC2
S11306E01EC080E2F2DC97DD8111F4CF8AE090E055
S11306F0C4DC80E26BDFEECFD99A8895B2995BC2F5
S1130700809161008111F8CF41E061E087E0C3DCB2
S113071061B780E0E2DC80B78F7D80BFD798889591
S11307201092870080916D008330B9F4D1E3C1E069
S11307308D2FCBDC90917800891309C081E08D0F57
S1130740C4DC90917900891302C0C0938700CF5F05
S1130750DE5FC53069F710926D00C0918700C2302A
S113076009F459C018F4C13041F0F7C1C33009F499
S1130770A6C0C43009F453C1F0C1109265001092B0
S1130780640080916A00811107C0809170008630F6
S11307900CF0E3C18F5F49C01093610090917A001F
S11307A0813039F49F5F963008F44FC0F0927A009C
S11307B051C0933071F4823021F4809169008F5FCD
S11307C053C0809168008F5F8093680080937400A9
S11307D0C4C1943009F0C1C1C0916900823051F4A0
S11307E074DC8C1708F453C0809169008F5F809388
S11307F069004DC080918600EC2FF0E0882319F049
S1130800E457FF4F02C0E658FF4F808186300CF05A
S1130810E8C18F5F51C080916A0081110AC0809144
S113082070008B3F0CF499C1815080937000DCDE22
S113083092C110926500109264001093610090912F
S11308407A00813051F4915019F090937A0002C0EB
S113085080937A0080917A00B9CF933061F482302A
S113086031F480916900815080936900AFCF809109
S113087068008150A9CF943009F06FC1E0916900FC
S1130880823041F4E23018F0E150E0936900809145
S113089069009CCF80918600F0E0882331F0E45712
S11308A0FF4F808187FD9DC106C0E658FF4F8081C0
S11308B08B3F0CF496C18150808396DE92C1809167
S11308C06A00882309F499C041E061E081E0E3DB38
S11308D01093610080917A00833051F130F48130BB
S11308E009F433C1823099F078C0843009F446C0E9
S11308F0853009F072C01092650088E0809364002E
S11309008091720080937400009363004CC08091C6
S11309106A00813019F4109274005FC082E390E0A1
S1130920ACDB889565B16093750081E0D6DB0DC1C1
S113093010927400109265001092640080916A0015
S11309408130C9F0823041F480916900BEDB80932C
S113095068008093740041C0C09168008091690070
S1130960B4DBC817D1F16091680080916900B5DBF0
S1130970809169008F5F80936900EBCF80916A005A
S1130980E0916900823041F410927400F0E0E6587E
S1130990FF4F808129DE21C0E09374001EC0809146
S11309A07400882331F08895809161008111F7CF1C
S11309B00CC0809166008111F6CF80916500811191
S11309C0F2CF809164008111EECF80917100809309
S11309D074000093630010926A0080916A0083306F
S11309E020F48F5F80936A00B8C0815080936A00BE
S11309F041E061E085E04FDBB0C080916F00811180
S1130A0003C0F0926F00A9C010926F0041E061E052
S1130A108AE041DB00936A0000937A0011C0909150
S1130A206A00911110C041E061E083E034DB82E0B0
S1130A3080936A00C0937A00109286000093690044
S1130A400093740031C080917A00833051F4923065
S1130A5021F480916900805F07CF80916800865FF0
S1130A60B3CE843009F071C0809186008E258093C6
S1130A708600882311F086E001C083E041E061E054
S1130A800ADB1092740085E090E0F7DA809186002A
S1130A90E0916900F0E0882319F0E457FF4F02C0A9
S1130AA0E658FF4F8081A0DD1093610056C010927C
S1130AB06B0080916B008F5F80936B0041E061E07D
S1130AC083E0E9DA80916B00809374008FE090E01A
S1130AD0D4DA10926D001093610080916100882334
S1130AE019F1889580916D008330B9F780916B007E
S1130AF0813021F46091760080E3EFDA80916B001D
S1130B00880F60917800815DE8DA609179008091C6
S1130B106B00880F805DE1DA80916B00843048F2CD
S1130B2041E061E088E0B7DA10926D0010926C0049
S1130B3010926B0010927400809161008111EFCDCE
S1130B4080916A00882309F44CC010926A001092C4
S1130B507A00109274001092610080916F008130CD
S1130B6031F41092700041E061E085E094DA809104
S1130B706C008F3F09F741E061E082E08CDA10926B
S1130B806C0081E090E079DAB29BFBCF80916C003D
S1130B908F3F09F08CCF86B790E0019695958795A5
S1130BA081508CBF80B7806280BFD79A10926C004E
S1130BB010936100A5CD80916C00833008F4A0CD22
S1130BC0803538F481B78F5F81BF41E061E081E017
S1130BD006C081B7815081BF41E061E082E05BDA09
S1130BE0E5CFF894C0917100D0917200789480910F
S1130BF060008F3F69F4D0939A00C0939900D0931A
S1130C009C00C0939B00D0939E00C0939D0002C0A3
S1130C10843010F010926000E091600081E08E0F4B
S1130C2080936000F0E0EE0FFF1FE956FF4FD18381
S1130C30C0838091990090919A0020919B003091FB
S1130C409C00820F931F20919D0030919E00820F83
S1130C50931F2091970030919800820F931F76E0A4
S1130C60969587957A95E1F7C82ED12C80E18D0D64
S1130C702CDAC81628F0D394E6E0DE12F7CF0AC0C7
S1130C8090916200D91634F4B82EBC1886E01DDAAF
S1130C90B81688F3D0926200809070008D0CF6E054
S1130CA0F81524F087FE04C0812C02C056E0852E7E
S1130CB080917300882329F084E007DA88150CF406
S1130CC0882E82E002DA482E3BE7A32E30E0B32ED2
S1130CD04DE8C42E40E0D42E612C641409F47FC086
S1130CE081E0841548F480E2860DEFD994DA81110D
S1130CF003C080E26BDC73C0F50171905F01780C76
S1130D00F6E0F71524F077FE04C0712C02C026E04B
S1130D10722E312C90E4992E55245394590C892D1C
S1130D20D4D9861120C082E0282E290C852DCDD956
S1130D308F3F29F0682F85E208DA3324339483E067
S1130D40980E822DC2D9582E552031F3892DBDD944
S1130D50781205C081E0890DB8D9782E0FC093941C
S1130D6093945A94F1CF8F3F49F082E0890DADD925
S1130D70982E990C93949394950CCECFD09389008C
S1130D80C0938800F60181916F018F3F09F0782E9E
S1130D9070928A008091730080938B0088E890E0C1
S1130DA018DA982E332029F087E08FD9682F85E24E
S1130DB0CCD9F2E09F1629F0992079F081E1860DD3
S1130DC001C080E303DC82EEF2D981EEF0D944DA8B
S1130DD084E190E052D980E0EED963947ECF83E041
S1130DE074D9809361009BCCFB01DC0102C00590A7
S1110DF00D9241505040D8F70895F894FFCF6B
S1050DFEFF28C8
S9030000FC
