S0190000576972656C657373434F3253656E736F722E737265637F
S113000017C031C0CAC15EC23EC12DC02CC02BC0B6
S1130010EEC129C028C005C226C0A6C124C023C081
S113002022C0C8C8230124772607210122013104F4
S113003011241FBECFE5D1E0DEBFCDBF10E0A0E6A6
S1130040B0E0E8EFFDE002C005900D92A236B107E2
S1130050D9F720E0A2E6B0E001C01D92A03AB207B1
S1130060E1F7EDD2C7C6CCCF882331F09BE19A9556
S1130070F1F700008150F8CF0895009759F02FEF61
S11300803FE742E0215030404040E1F700C000002B
S11300900197F3CF0895FF920F931F93CF93DF93AC
S11300A0F82E062F10E0C42FD0E0D998FF2039F0A5
S11300B0C801E3DFD99ACE01E0DFFA94F6CFDF91ED
S11300C0CF911F910F91FF900895E199FECF90E099
S11300D09FBB8EBBE09A8DB30895E199FECFF8944F
S11300E01CBA90E09FBB8EBB6DBBE29AE19A7894F8
S11300F008958FB980E48EB98BE18DB9769BFDCFDD
S11301008FB10895EF92FF921F93CF93DF9300D0A6
S1130110CDB7DEB7142FDB9869837A83EADF698170
S1130120E62E7A81F72E160F1E1531F08FEFE1DFE0
S1130130F70181937F01F8CFDB9A0F900F90DF9145
S1130140CF911F91FF90EF900895CF93DF931F926B
S1130150CDB7DEB7DB986983CCDF6981862FC9DF31
S1130160DB9A0F90DF91CF910895EF92FF921F9346
S1130170CF93DF9300D0CDB7DEB7142FDB9869831C
S11301807A83B7DF6981E62E7A81F72E160F1E1562
S113019029F0F70181917F01ACDFF9CFDB9A0F9051
S11301A00F90DF91CF911F91FF90EF900895DB980E
S11301B0A0DFDB9A0895CF93C82F682F6E6780E283
S11301C0C4DFC0FF04C060E787E2BFDFDA9ACF91E3
S11301D00895CF93DF93EC01DA9860E787E2B5DF07
S11301E081EEE5DF44E0BE0180EABFDFDA9ACFEFBB
S11301F084E13ADF8FEFDBDF982F907321F4C15055
S1130200B9F782E005C085FB882780F991E089274A
S1130210DF91CF910895CF93C82F8093890042E056
S113022050E062E270E08AE890E0DBD543E069E800
S113023070E08AE29ADF43E069E870E080E395DFEA
S113024043E069E870E080E15DDF81E0909189003E
S11302509C1380E0CF9108951F93CF93DF93182FC1
S1130260DB9AC4E2D0E0FE018491319664916DDFA3
S11302702296F0E0C033DF07B1F7612F85E2DF910A
S1130280CF911F9162CF1F920F920FB60F9211243C
S11302908F939F9388E181BD8BE481BD8091610040
S11302A0882329F0809161008150809361008091BE
S11302B07000882319F0815080937000809167004A
S11302C0882339F0D99A8091670081508093670020
S11302D044C080916600882329F0D99880916600F3
S11302E081500FC080916500882371F08150809304
S11302F065009AE090936700811102C086E00EC009
S113030083E08093660029C080916400882371F0A3
S113031081508093640082E080936700809366003C
S113032080916400811119C084E1EBCF8091750044
S1130330882399F08091750082958F708093650071
S1130340809175008F70809364008091630088238E
S113035021F010926300109275009F918F910F907D
S11303600FBE0F901F9018951F920F920FB60F9209
S113037011242F938F939F9325B181E09091760060
S1130380291708F480E0809374009F918F912F9136
S11303900F900FBE0F901F9018951F920F920FB6DB
S11303A00F9211242F933F938F939F93C89B03C065
S11303B01DBC1CBC13C02CB53DB58091720090913E
S11303C0730004973695279536952795820F931FCA
S11303D09695879590937300809372009F918F9167
S11303E03F912F910F900FBE0F901F9018951F9261
S11303F00F920FB60F9211248F9380917500811183
S11304000AC080916B00811106C080E4809375005E
S113041081E0809363008F910F900FBE0F901F9027
S113042018951F920F920FB60F9211242F933F939A
S11304304F935F938F939F9380916F008F5F80930F
S11304406F00811134C080916E00833081F140913E
S11304506D00B29908C04F3F19F04F5F40936D0093
S113046010926E0024C08230E1F4809177008823DA
S1130470C1F083E080936E002091790030917A007E
S1130480C90154E0880F991F5A95E1F750918600ED
S1130490850F911D820F931F90937A0080937900AA
S11304A002C010926E004A3010F410926D009F91B9
S11304B08F915F914F913F912F910F900FBE0F90AD
S11304C01F9018951F920F920FB60F9211242F931D
S11304D03F934F935F938F939F9380916E0081110D
S11304E010C081E080936E0010928D00109278000D
S11304F01092860085E095E190937A0080937900CC
S113050054C0833008F053C040916F008130A1F48F
S1130510842F86958695869590917700891731F07A
S113052090916C00992331F08093770082E080935E
S11305306E0002C010926E0080918D00841730F41A
S1130540242F281B982F969581E005C0282F241B63
S113055081E0942F9695921708F080E050918600E0
S1130560550F582B50938600809178008F5F883008
S113057018F48093780017C01092780020917900C5
S113058030917A00C90182959295907F9827807F57
S11305909827820F931F850F911D90937A00809363
S11305A079001092860040938D0010926F009F9105
S11305B08F915F914F913F912F910F900FBE0F90AC
S11305C01F90189590917500911109C090916B003E
S11305D0911105C091E09093630080937500089594
S11305E01092670094E09093660091E0909363000A
S11305F087FD03C080937500089590E1981B909344
S113060075000895D798DF9884E190E036DDD79A95
S11306108AE090E032DDD798DF9A82E090E02DDD29
S1130620D79A82E090E029DD87E04FDD15DE80E097
S1130630C2DD81E090E021DD10926800089580E839
S113064086BD16BC80E285BF92E09ABB8AB38C63F8
S11306508ABB83E088BB80BF8AE083BF81E386BF17
S11306601CBE9FBD8DE18EBD80E89EE395BD84BD1B
S113067085E02BDD882311F081E08CB980E38BBF0A
S113068081E082BB87E080BD81E01FDD809376003E
S11306908F3F49F461B780E020DD61E082E01DDD39
S11306A060E981E01ADD80E010DD81BF8BB78062F4
S11306B08BBF80B5846080BD89B7816089BF80E3CA
S11306C004DD80937700D798DF9A43E063E083E00A
S11306D0E2DCD79A81E090E0D0DC88E181BD8BE454
S11306E081BD789487E0F1DCB7DDEEE8F0E08FEFD0
S11306F0819390E0E839F907D9F780E05CDDFF24C5
S1130700F39401E01FEF88951092880080916E00A9
S11307108330B9F4D1E3C1E08D2FD7DC9091790017
S1130720891309C081E08D0FD0DC90917A00891380
S113073002C0C0938800CF5FDE5FC53069F71092B6
S11307406E00C0918800C23009F458C018F4C1305A
S113075041F0F7C1C33009F4A5C0C43009F453C152
S1130760F0C1109265001092640080916B008111B9
S113077007C08091710086300CF0E3C18F5F48C0E0
S11307801093610090917B00813031F49F5F96302B
S113079008F44EC085E04FC0933071F4823021F4E8
S11307A080916A008F5F53C0809169008F5F80934E
S11307B0690080937500C5C1943009F0C2C1C0912D
S11307C06A00823051F481DC8C1708F453C08091A4
S11307D06A008F5F80936A004DC080918700EC2F80
S11307E0F0E0882319F0E357FF4F02C0E558FF4FAC
S11307F0808186300CF0FBC18F5F51C080916B000B
S113080081110AC0809171008B3F0CF49AC1815010
S113081080937100E5DE93C110926500109264002C
S11308201093610090917B00813051F4915019F044
S113083090937B0002C080937B0080917B00B9CFB2
S1130840933061F4823031F480916A008150809356
S11308506A00AFCF809169008150A9CF943009F02C
S113086070C1E0916A00823041F4E23018F0E15046
S1130870E0936A0080916A009CCF80918700F0E049
S1130880882331F0E357FF4F808187FDB0C106C054
S1130890E558FF4F80818B3F0CF4A9C181508083C0
S11308A09FDEA5C180916B00882309F499C041E0C3
S11308B061E081E0F0DB1093610080917B00833084
S11308C051F130F4813009F434C1823099F078C0A8
S11308D0843009F446C0853009F072C01092650076
S11308E088E0809364008091730080937500009386
S11308F063004CC080916B00813019F41092750034
S11309005FC082E390E0B9DB889565B160937600BF
S113091081E0E3DB0EC11092750010926500109225
S1130920640080916B008130C9F0823041F4809181
S11309306A00CBDB809369008093750041C0C0914D
S1130940690080916A00C1DBC817D1F16091690028
S113095080916A00C2DB80916A008F5F80936A0095
S1130960EBCF80916B00E0916A00823041F41092E9
S11309707500F0E0E558FF4F808132DE21C0E0933E
S113098075001EC080917500882331F08895809190
S113099061008111F7CF0CC0809166008111F6CF00
S11309A0809165008111F2CF809164008111EECFB6
S11309B080917200809375000093630010926B0025
S11309C080916B00833020F48F5F80936B00B9C0FB
S11309D0815080936B0041E061E085E05CDBB1C055
S11309E080917000811104C085E080937000A9C0DB
S11309F01092700041E061E08AE04DDB00936B00EF
S1130A0000937B0011C090916B00911110C041E0E4
S1130A1061E083E040DB82E080936B00C0937B0065
S1130A201092870000936A000093750031C0809192
S1130A307B00833051F4923021F480916A00805F0E
S1130A4006CF80916900865FB2CE843009F071C010
S1130A50809187008F2580938700882311F086E09A
S1130A6001C083E041E061E016DB1092750085E08F
S1130A7090E003DB80918700E0916A00F0E0882336
S1130A8019F0E357FF4F02C0E558FF4F8081A8DDFE
S1130A901093610056C010926C0080916C008F5FBF
S1130AA080936C0041E061E083E0F5DA80916C00B2
S1130AB0809375008FE090E0E0DA10926E0010935E
S1130AC0610080916100882319F1889580916E00FE
S1130AD08330B9F780916C00813021F46091770004
S1130AE080E3FBDA80916C00880F60917900815D6E
S1130AF0F4DA60917A0080916C00880F805DEDDA01
S1130B0080916C00843048F241E061E088E0C3DA0F
S1130B1010926E0010926D0010926C00109275008D
S1130B20809161008111EFCD80916B00882309F4DD
S1130B305EC010926B0010927B00109275001092B0
S1130B40610080917000813031F41092710041E0B5
S1130B5061E085E0A0DA80916D008F3F09F741E004
S1130B6061E082E098DA10926D0081E090E085DA2D
S1130B70B29BFBCF80916D008F3F09F08CCF86B77D
S1130B8090E001969595879581508CBF80B78062DF
S1130B9080BFD79A10926D0010936100809161001C
S1130BA08823C9F0D99A8895B29BF8CF80916D00BB
S1130BB08330A0F3803538F481B78F5F81BF41E083
S1130BC061E081E006C081B7815081BF41E061E00E
S1130BD082E061DADFCF41E061E087E05CDA61B7AF
S1130BE080E07BDA80B78F7D80BFD7988CCDF89476
S1130BF0C0917200D09173007894809160008F3F0F
S1130C0069F4D0939B00C0939A00D0939D00C09345
S1130C109C00D0939F00C0939E0002C0843010F0CB
S1130C2010926000E091600081E08E0F809360007C
S1130C30F0E0EE0FFF1FE856FF4FD183C083809191
S1130C409A0090919B0020919C0030919D00820F0E
S1130C50931F20919E0030919F00820F931F20913B
S1130C60980030919900820F931F56E096958795CE
S1130C705A95E1F7D82EE12C80E18E0D26DAD816AC
S1130C8028F0E39486E0E812F7CF0AC0909162005E
S1130C90E91634F4C82ECD1886E017DAC81688F39E
S1130CA0E0926200B0907100BE0C96E09B1524F0B7
S1130CB0B7FE04C0B12C02C036E0B32E809174009C
S1130CC0882329F084E001DA8B150CF4B82E912CDA
S1130CD082E0FBD9981608F07FC080E2890DF5D92F
S1130CE0E82E809168008E1541F08E2D94DA8111E2
S1130CF002C080E26CC0E0926800C92CD12CF601DD
S1130D00E458FF4FA080AB0C86E08A1524F0A7FEC0
S1130D1004C0A12C02C026E0A22E712C90E4E92E7E
S1130D20882483948E0C8E2DD0D9891120C082E022
S1130D30682E6E0C882DC9D9682F8F3F21F085E26B
S1130D4004DA7724739493E0E90E862DBED9882EB5
S1130D50882031F38E2DB9D9A81205C081E08E0DFB
S1130D60B4D9A82E0FC0E394E3948A94F1CF8F3FB3
S1130D7049F082E08E0DA9D9E82EEE0CE394E394B9
S1130D80E80CCECFD0938A00C0938900F601E257D5
S1130D90FF4F80818F3F09F0A82EA0928B00809195
S1130DA0740080938C0089E890E013DAE82E7720B1
S1130DB029F087E08AD9682F85E2C7D982E0E8164E
S1130DC029F0EE2039F081E1890D01C080E3FADBDE
S1130DD019DC02C093947CCF83E077D980936100BF
S1130DE092CCFB01DC0102C005900D9241505040B1
S10B0DF0D8F70895F894FFCF31
S1050DF8FF28CE
S9030000FC
